:020000040800F2
:10000000C016022079020008393B0008E5310008DB
:10001000353B000825110008915A00080000000037
:10002000000000000000000000000000C101000806
:10003000052100080000000015020008114E00080C
:100040009D0200089D0200089D0200089D02000814
:100050009D0200089D0200089D0200089D02000804
:100060009D0200089D0200089D0200089D020008F4
:100070009D0200089D0200089D0200089D020008E4
:100080009D020008311D00089D0200089D02000825
:10009000291100089D0200089D0200081127000890
:1000A0009D0200089D0200089D0200089D020008B4
:1000B0009D020008894E00089D0200089D0200086C
:1000C0009D0200089D0200089D0200089D02000894
:1000D0009D020008F5540008E55500089D0200083F
:1000E0009D0200089D0200089D0200089D02000874
:1000F0009D0200089D0200089D0200089D02000864
:100100009D0200089D0200089D0200089D02000853
:100110009D0200089D020008395000089D02000859
:100120009D0200089D0200089D0200089D02000833
:100130009D0200089D0200089D0200089D02000823
:10014000291300089D0200089D0200089D02000876
:10015000651D00089D020008BD1D000889560008A5
:100160009D0200089D0200089D0200089D020008F3
:100170009D0200089D0200089D020008000000008A
:100180009D0200089D0200089D020008C954000855
:100190009D0200089D0200089D0200089D020008C3
:1001A00000000000000000009D020008DFF80CD0F5
:1001B00000F0F4FB00480047E1980008C016022058
:1001C0002A4B19680868B0E8F04F80F30988BFF33C
:1001D0006F8F4FF0000080F311887047000000001F
:1001E00006480068006880F3088862B661B6BFF30D
:1001F0004F8FBFF36F8F00DF00BF00BF08ED00E03F
:10020000DFF80C00016841F470010160704700BF25
:1002100088ED00E0EFF30980BFF36F8F134B1A688E
:100220001EF0100F08BF20ED108A20E9F04F10607B
:1002300008B44FF0500080F31188BFF34F8FBFF325
:100240006F8F0BF0FBFB4FF0000080F3118808BCB0
:1002500019680868B0E8F04F1EF0100F08BFB0EC46
:10026000108A80F30988BFF36F8F70472400002045
:10027000EFF30580704700000948016841F4700100
:1002800001600848804708480047FEE7FEE7FEE7B0
:10029000FEE7FEE7FEE7FEE7FEE7FEE7FEE700001B
:1002A00088ED00E0214E0008AD0100089FED1A1A0C
:1002B000F5EE000A40EE010ABDEEE00AF5EEC00AD6
:1002C00010EE100AF1EE10FA38BF401E00EE100AD0
:1002D0001349F7EE001AB8EEC00A30EEC00ADFED9F
:1002E0000F0A20EE200AFCEEC00A10EE900AC0F3BE
:1002F000080000EE900A01EB8000F8EE600A90ED35
:10030000011A70EE600A90ED000A71EEE01A21EE1B
:10031000800A00EE810A704783F9223E0000004403
:1003200064CC0008DFED190AB5EEC00A60EE200AC1
:10033000BDEEE01A11EE100AF1EE10FA38BF401EC1
:1003400000EE100A1349F7EE001AB8EEC00A30EEBC
:10035000C00ADFED0F0A60EE200ABCEEE00A10EEE4
:10036000100AC0F3080000EE100A01EB8000B8EE9E
:10037000400A90ED011A70EEC00A90ED000A71EE8D
:10038000E01A21EE800A00EE810A704783F9223ECE
:100390000000004464CC000840EA01039B0703D03E
:1003A00009E008C9121F08C0042AFAD203E011F8B4
:1003B000013B00F8013B521EF9D27047D2B201E076
:1003C00000F8012B491EFBD270470022F6E710B55A
:1003D00013460A4604461946FFF7F0FF204610BDB3
:1003E000421C10F8011B0029FBD1801A70472DE92F
:1003F000FE4F804681EA0300C00F0C46009021F0BA
:10040000004123F00045B8EB0200A94105D2404667
:10041000214690461C460B46024623F000401043FE
:1004200047D0270DC7F30A00C3F30A510290401AC0
:10043000019040286BDAC3F3130040F4801B00984E
:10044000924620B10023D2EB030A63EB0B0B019819
:100450005946C0F14002504600F0DAF906460D4612
:1004600050465946019A00F0F2F910EB080061413C
:10047000002487EA115284EAE7731A4340D0009AB5
:1004800062B3019A012A4FEA075215DC001B61EBA7
:1004900002014FF0004202EA0752CDE90042001C7F
:1004A00041F5801132462B4600F029FA03B0BDE831
:1004B000F08F40462146F9E7001B61EB0201001C6A
:1004C00041F5801300185B412018A2F5001747EB97
:1004D000030140EAD570B6196D4111E06D084FEA8D
:1004E000360645EAC0754FEA0752001B61EB020170
:1004F000001C41F5801149084FEA300000195141B4
:1005000032462B4603B0BDE8F04F00F0E9B9009841
:10051000012240000023D0EB020263EBE07300985D
:1005200021464FEAE074B8EB000061EB0401E9E713
:1005300083F000435BE781F0004158E72DE9FE4F6F
:1005400081EA030404F0004421F0004100944FF0DC
:10055000000B23F0004350EA01045ED052EA03048A
:100560005BD0C3F30A54C1F30A552C44A4F2F3340C
:100570000194A0FB0254C1F3130141F48011C3F3B1
:10058000130343F4801301FB024400FB034E840A6F
:10059000970A44EA815447EA8357A4FB0768029507
:1005A0008D0A05FB07854FEA932C04FB0C542705A5
:1005B000029D4FEA065847EA1637B5EB08056EEB81
:1005C000070C870E920E47EA811742EA8312A7FBB7
:1005D0000201B6EB0B0164EB00042B0D43EA0C3374
:1005E0005E1844EB1C50DA465146E7FB0201C5F3A6
:1005F00013044FEA0B3343EA14534FEA0432019CCD
:1006000043EA0603A4F10C040294009CCDE900B473
:1006100000F075F903B0BDE8F08F00200146F9E75E
:100620002DE9F04D81EA030404F0004B21F0004570
:1006300014464FF0000A23F0004150EA050220D092
:1006400054EA01021DD0C5F30A570246C5F313034D
:10065000C1F31300C1F30A5640F4801543F480132C
:10066000A7EB0608101BD64608F2FD3873EB050011
:1006700002D308F1010801E092185B41B8F1000FC4
:1006800003DA00200146BDE8F08D00204FF4801110
:10069000064684460EE0171B73EB050705D3121BB5
:1006A00063EB050306434CEA010C49084FEA3000AE
:1006B00092185B4150EA0107EDD152EA030012D0D3
:1006C00082EA040083EA0501084305D0101BAB4110
:1006D00006D20122002306E000224FF0004302E090
:1006E0006FF0010253101AEB06004CEB085110EBAF
:1006F0000A0041EB0B01BDE8F04D00F0F1B80EB57A
:10070000C10F80EAE0700844CA07002140F2334379
:100710008DE80E000A460B4600F0F1F803B000BD6C
:10072000C1F30A5210B5C1F3130140F2FF3341F493
:1007300080119A4201DA002010BD40F233439A4200
:10074000A2F2334203DC524200F071F810BD904037
:1007500010BD00F0004230F000400AD0C10D01F59C
:100760006071C0F3160042EA0151C208400711430C
:10077000704700200146704730B5041E71F1000437
:1007800004DB4FF00044404264EB0101141E73F19E
:10079000000405DB1C464FF00043524263EB0403A8
:1007A0008B4208BF824230BD30B5041E71F1000497
:1007B00004DB4FF00044404264EB0101141E73F16E
:1007C000000405DB1C464FF00043524263EB040378
:1007D000994208BF904230BD01F0004330B421F08F
:1007E000004150EA010206D00A0DA2F56072C1F381
:1007F0001301002A02DC30BC00207047440F44EA99
:10080000C104C100E01830BC00EBC25000F031B8A8
:10081000202A04DB203A00FA02F1002070479140C0
:10082000C2F1200320FA03F3194390407047202AB5
:1008300004DB203A21FA02F00021704721FA02F38A
:10084000D040C2F120029140084319467047202A47
:1008500006DBCB17203A41FA02F043EAE07306E0E8
:1008600041FA02F3D040C2F12002914008431946F8
:1008700070470029A8BF7047401C490008BF20F0FE
:100880000100704710B4B0FA80FC00FA0CF050EA96
:10089000010404BF10BC704749B1CCF1200421FA17
:1008A00004F411FA0CF118BF012121430843A3EB12
:1008B0000C01CB1D4FEA00614FEA102042BF00201F
:1008C00010BC704700EBC35010440029A4BF10BCFB
:1008D0007047401C490008BF20F0010010BC704761
:1008E00010B5141E73F1000408DA401C41F1000138
:1008F00092185B411A4301D120F0010010BD2DE98F
:10090000F04D92469B4611B1B1FA81F202E0B0FA85
:1009100080F220329046FFF77BFF04460F4640EA04
:100920000A0041EA0B0153465A46084313D01146C8
:1009300053EA010019D0C8F140025046FFF777FF93
:1009400005460E46504659464246FFF761FF0843AA
:1009500005D0012004E020463946BDE8F08D002096
:10096000054346EAE0762C4337430A986305E40AD8
:10097000A0EB08000022FD0A44EA47540A3002D5E1
:1009800000200146E9E7010510196941DDE9084544
:1009900000196941BDE8F04DA2E70000064C074D83
:1009A00006E0E06840F0010394E80700984710343F
:1009B000AC42F6D3FFF7FEFB68D4000888D40008E9
:1009C00070B58C1810F8015B15F0070301D110F811
:1009D000013B2A1106D110F8012B03E010F8016B3E
:1009E00001F8016B5B1EF9D12B0705D40023521EC1
:1009F0000DD401F8013BFAE710F8013BCB1A921C29
:100A000003E013F8015B01F8015B521EF9D5A14226
:100A1000D8D3002070BDCA430260704721B18268FC
:100A200042F00102826003E0826822F001028260EB
:100A3000704700000021084A1168084A1140D0E9B7
:100A400000231A4383681A43C3681A431143044AB4
:100A5000C2F804137047000004230140E030FCFF9B
:100A6000002001400146C86C80B270470246002059
:100A700013680B400BB1012000E00020704700001C
:100A800030B50246002000235068104C20400D79FC
:100A90000C6844EA05242043506090680C4C2040C8
:100AA000D1E903542C438D682C434D7944EA450425
:100AB00020439060D06A20F470000C7D641EE4B284
:100AC000234340EA0350D06230BD0000FFFEFFFC2C
:100AD000FDF7FFC0F0B504460D4600200021092DAA
:100AE00011DDE068A5F10A0606EB4607072606FABF
:100AF00007F18843A5F10A0606EB460603FA06F15C
:100B00000843E0600CE0206905EB4507072606FA7C
:100B100007F1884305EB450603FA06F10843206117
:100B2000072A0FDA606B561E06EB86071F2606FAA9
:100B300007F18843561E06EB860605FA06F10843C0
:100B4000606322E00D2A0FDA206BD61F06EB8607C2
:100B50001F2606FA07F18843D61F06EB860605FA1C
:100B600006F10843206310E0E06AA2F10D0606EBEF
:100B700086071F2606FA07F18843A2F10D0606EB49
:100B8000860605FA06F10843E062F0BD816841F08F
:100B9000804181607047000038B10849096841F41C
:100BA0000001074AC2F8041306E00449096821F469
:100BB0000001034AC2F804137047000004230140F7
:100BC0000020014010B52DED028BB0EE408AB0EE52
:100BD000480A04F0A9FFBDEC028B10BD10B52DED45
:100BE000028BB0EE408AF0EE608AF0EE680AB0EE5A
:100BF000480A05F02FF8BDEC028B10BD10B52DEDA5
:100C0000028BB0EE408AB0EE480AFFF74FFBBDEC16
:100C1000028B10BDF0EE400AF5EEC00AF1EE10FABC
:100C200002DDB0EE600A7047B1EE600AFBE700003B
:100C300018B19FED020A80ED000A70470000000025
:100C400018B19FED020A80ED000A7047DF8FB441B2
:100C500070B52DED0C8B84B006460C4615469FED05
:100C6000990AF0EE408A9FED970AB0EE409A9FED08
:100C7000950AF0EE40BA9FED930AF0EE409A9FED90
:100C8000910AB0EE40AA0EB104B11DB904B0BDEC9A
:100C90000C8B70BD8C48FFF7CBFF8C48FFF7D0FF63
:100CA0008A48D0ED000A9FED8A1A60EE810AB0EE04
:100CB000600A00F039F9F0EE408A28EEA80AF0EE5A
:100CC000408A8248D0ED000AB0EE001A60EE810A38
:100CD0009FED7F1A60EE810AB0EE600A00F024F901
:100CE000B0EE409A29EE090AB0EE409ADFED790A9B
:100CF000B7EE000A00EEA80ADFED770A00EEC90A97
:100D0000DFED760A20EE200A754880ED000A6E4875
:100D100090ED000ADFED730A80EE201AB7EE000AAC
:100D200031EE000A20EE000A6D48D0ED000A80EE98
:100D3000801A6D4880ED001A94ED000AB5EEC00AE5
:100D4000F1EE10FA0DD194ED010AB5EEC00AF1EE04
:100D500010FA06D194ED020AB5EEC00AF1EE10FACF
:100D600046D09FED580AB0EE408A002001900290D4
:100D70000390D4ED000A60EEA00A94ED011AD4EDC0
:100D8000011A41EE210A94ED021AD4ED021A41EE45
:100D9000210AB0EE600A00F0A9F8B0EE408A94EDA6
:100DA000000A20EE080A8DED010A94ED010A20EEFA
:100DB000080A8DED020A94ED020A20EE080A8DED74
:100DC000030ADDED010AF1EE600AB0EE600AFFF7FA
:100DD000F9FEF0EE409A9DED031AF0EE410A9DED0A
:100DE000021AB0EE410AFFF7F9FEB0EE40AA07E0A2
:100DF0009FED340AF0EE409A9FED320AB0EE40AA21
:100E000095ED000AB5EEC00AF1EE10FA0DD195EDA0
:100E1000010AB5EEC00AF1EE10FA06D195ED020A0C
:100E2000B5EEC00AF1EE10FA3CD0B0EE690A00F05F
:100E30007BF8B0EE408AB0EE690AFFF7DFFEB0EE55
:100E400040DAB0EE4A0A00F06FF8F0EE40AAB0EED9
:100E50004A0AFFF7D3FEB0EE40BA28EE2A0AD5EDD3
:100E6000010A20EE200AD5ED000A0DEE200A68EEF8
:100E70000B0A95ED021A00EE810AB0EE40CA95ED1C
:100E8000010A20EE0B0AD5ED020A0AEEE00AF0EEA6
:100E900040CAF0EE6C0AB0EE4C0AFFF79FFEF0EE8F
:100EA00040BA03E09FED070AF0EE40BAB0EE4A1AEE
:100EB000F0EE690AB0EE6B0A304605F0D7F900BFD4
:100EC000E4E60000000000001C03002020030020D6
:100ED00035FA8E3CC1BFAD3B9DF8C5362F7C1C4119
:100EE00024030020506CC24A28030020F0EE400A80
:100EF000F6EE001A60EEA11AB0EE611AB0EE600ACA
:100F000010EE100A0749A1EB600000EE100A21EE76
:100F1000002AF7EE081A42EE401A61EE801AB0EE8F
:100F2000610A7047DF59375F10B52DED028BB0EEC7
:100F3000408AB0EE480AFFF7F5F9BDEC028B10BD10
:100F40002DE9F0412DED028B9AB00546B0EE408AB6
:100F50000E46174698460020179018901990149046
:100F6000159016904DB146B13FB1B8F1000F04D0C5
:100F7000B5EEC08AF1EE10FA05D100201AB0BDEC32
:100F8000028BBDE8F08196ED000A8DED170A96ED13
:100F9000010A8DED180A96ED020A8DED190A97EDFA
:100FA000000A8DED140A97ED010A8DED150A97EDF3
:100FB000020A8DED160A17AA14A9284604F0A8FF04
:100FC000402104A8FFF701FA002000900190029050
:100FD0000390002417A904A80AF064F900BF30E0C8
:100FE00004A800EB041090ED000AD5ED000A20EEF5
:100FF000200A04A800EB0410D0ED010A95ED011AB7
:1010000000EE810A04A800EB0410D0ED020A95ED71
:10101000021A00EE810A04A800EB0410D0ED030AC6
:1010200095ED031A00EE810A20EE080AF0EE000AA0
:1010300080EE201A684600EB840080ED001A601CE8
:10104000C4B2042CCCDB002410E005EB840090ED4E
:10105000000A684600EB8400D0ED000A30EE200A5A
:1010600005EB840080ED000A601CC4B2042CECDBAC
:10107000284609F08BFC012080E738B54FF440701A
:1010800002F098FD4FF47A7006F0CEFE08F09AFB5D
:1010900009F034FF08F000FE4FF4FA7240F26711D5
:1010A00040F2E73003F076FF4FF4C87006F0F2FE2E
:1010B0005A2147F2305005F08FF94FF4E1614FF4B7
:1010C000FA6009F08FFE08F055FB5A214EF66020B9
:1010D00003F0C4FF002005231A460121009000F010
:1010E0009BF8002005231A460121009000F02EFAFB
:1010F000002408E0204608F003FE40F2C52006F078
:10110000F1FE601CC4B2042CF4DB09F097FC05F07E
:10111000DBFB4FF4E13002F0B1FC4FF4E13002F0C0
:1011200051FC38BD00BFFEE710B50221084800F0B1
:10113000C7FB58B10221064800F0EAFA054A00212F
:10114000034800F0E0FC034800F006F810BD000082
:10115000006400402C08022010B504462068A0F26C
:101160000120082851D2DFE800F00405060708092D
:101170000A0B00BF00BF00BF00BF00BF00BF00BF21
:101180002078401E224908700846007800EB800055
:10119000204931F8100000B21D49097801EB8101A6
:1011A0001C4A02EB41010881207BE17A40EA0120E0
:1011B0001749097801EB810122F81100A17B607BBE
:1011C00041EA002000B21249097801EB810102EBEB
:1011D00041014880217CE07B41EA002000B20C49BB
:1011E000097801EB810102EB41018880607C0849AC
:1011F000097801EB810102EB41018871044909780A
:10120000091DC8B200F0E6FF00E000BF00BF10BD3E
:1012100024010020C60702202DE9F0418AB00446CF
:101220000D4616461F46DDF840800121082002F0D9
:1012300019FE0121480602F025FE0121480602F0B0
:1012400031FE00214FF0007002F02CFE03200890C8
:1012500002208DF8240000208DF8260003208DF850
:10126000250001208DF8270008A92D4801F054FD24
:10127000092200212A4801F097FD0922012128486E
:1012800001F092FD00208DF81A0001208DF81B005E
:1012900000208DF81C008DF81D008DF81E008DF8C3
:1012A0001F008DF816808DF817408DF818608DF8A6
:1012B0001950ADF8147005A91A4800F09AFB0020E7
:1012C0008DF80E008DF80F0001208DF81000002021
:1012D000ADF80400ADF80600ADF80800ADF80A005E
:1012E000ADF80C0001208DF8110001A800F064FA9F
:1012F000012202210B4800F073FB14208DF800003E
:1013000004208DF8010000208DF8020001208DF8E6
:101310000300684602F012FC00200AB0BDE8F0812C
:10132000000C02400064004010B50221084800F0A3
:10133000C7FA58B10221064800F0EAF9054A00212F
:10134000034800F0E0FB034800F006F810BD000081
:10135000006800404008022010B504462068A0F252
:10136000052007287ED2DFE800F00423426182A135
:10137000C0006F48008800B26D490881207BE17A87
:1013800040EA01206A490880A17B607B41EA002095
:1013900000B267498880217CE07B41EA002000B2EE
:1013A00063494880607C8871012000F013FFBCE035
:1013B0006048008800B25F490881207BE17A40EAFA
:1013C00001205C490880A17B607B41EA002000B2DB
:1013D00058498880217CE07B41EA002000B25549D1
:1013E0004880607C8871022000F0F4FE9DE0524845
:1013F000008800B250490881207BE17A40EA012050
:101400004D490880A17B607B41EA002000B24A4937
:101410004880217CE07B41EA002000B24649888078
:10142000607C8871032000F0D5FE7EE04348008890
:1014300000B242490881207BE17A40EA01203F491D
:101440000880A17B607B41EA002000B23B49888094
:10145000217CE07B41EA002000B238494880607C72
:10146000887100E060E0012000F0B4FE5DE03448E7
:10147000008800B232490881207BE17A40EA0120ED
:101480002F490880A17B607B41EA002000B22C49F3
:101490008880217CE07B41EA002000B22849488016
:1014A000607C8871022000F095FE3EE025480088AF
:1014B00000B224490881207BE17A40EA01202149D9
:1014C0000880A17B607B41EA002000B21D49888032
:1014D000217CE07B41EA002000B21A494880607C10
:1014E0008871032000F076FE1FE01748008800B2E4
:1014F00015490881207BE17A40EA012012490880E1
:10150000A17B607B41EA002000B20F494880217C2A
:10151000E07B41EA002000B20B498880607C887142
:10152000032000F057FE00E000BF00BF10BD000028
:10153000800702208A070220940702209E070220CB
:10154000A8070220B2070220BC0702202DE9F041C3
:101550008AB004460D4616461F46DDF8408001213C
:10156000022002F07FFC0121880602F08BFC0121A1
:10157000880602F097FC00214FF0806002F092FC98
:101580004FF44050089002208DF8240000208DF880
:10159000260003208DF8250001208DF8270008A9DA
:1015A0002D4801F0B9FB09220C212B4801F0FCFB6E
:1015B00009220D21284801F0F7FB00208DF81A00C0
:1015C00001208DF81B0000208DF81C008DF81D00F7
:1015D0008DF81E008DF81F008DF816808DF81740CD
:1015E0008DF818608DF81950ADF8147005A91B48D6
:1015F00000F0FFF90E208DF80E0000208DF80F008E
:1016000001208DF810000020ADF80400ADF80600B0
:10161000ADF80800ADF80A00ADF80C0001208DF817
:10162000110001A800F0C8F8012202210B4800F0C7
:10163000D7F940208DF8000004208DF8010000202B
:101640008DF8020001208DF80300684602F076FA5A
:1016500000200AB0BDE8F0810004024000680040AC
:10166000F0B585B004460D4616461F464FF400708F
:10167000009000208DF808008DF8090008208DF8F2
:101680000A00200A8DF80B00E1B28DF80C10290A2F
:101690008DF80D10E9B28DF80E10310A8DF80F108B
:1016A000F1B28DF81010390A8DF81110F9B28DF8D9
:1016B00012106946024800F09EFA05B0F0BD000025
:1016C000006400402DE9F04104460D4616461F46D1
:1016D00040F2FF100C490860002008724872082090
:1016E0008872200AC87208460473290A41738573F8
:1016F000310AC1730674390A41748774014603487C
:1017000000F079FABDE8F08118080220006400407A
:10171000B1F5007F3AD00FDC202928D006DC012962
:101720001CD004291DD0082940D11DE0402921D01A
:10173000B1F5807F3AD126E0B1F5004F31D006DC1B
:10174000B1F5806F25D0B1F5006F2FD124E0B1F550
:10175000803F12D0B1F5003F28D111E0154A8260D8
:1017600025E00822C26022E01022C2601FE00822A9
:1017700002611CE01022026119E00822426016E0BA
:101780001022426013E00422426010E00422426012
:101790000DE0042242600AE00022826104224260DD
:1017A00005E0002282610422426000E000BF00BF29
:1017B000704700000101010010B50021837A012269
:1017C00002FA03F13D4A126842F001023B4B1A60F3
:1017D0003A4A1C3212688A43384B1C331A60027B27
:1017E000CAB9364A0C3212688A43344B0C331A6039
:1017F0004288C38842EA0343304A4032847A42F83E
:1018000034300288838842EA03432C4A4032847A87
:1018100002EBC4025360027B012A19D1274A0C3221
:1018200012680A43254B0C331A604288038842EA47
:101830000343224A4032847A42F83430C288838893
:1018400042EA03431D4A4032847A02EBC4025360E9
:10185000C27A3AB9194A121D12688A43174B1B1DE6
:101860001A6006E0154A121D12680A43134B1B1D2D
:101870001A60028932B9114A143212688A430F4B36
:1018800014331A600289012A06D10C4A14321268F4
:101890000A430A4B14331A60427B012A06D1074AD5
:1018A0001C3212680A43054B1C331A60034A126843
:1018B00022F00102014B1A6010BD000000660040DA
:1018C00070B504460D46002660692840002871D096
:1018D000B5F5807F5CD010DC082D35D006DC012DFD
:1018E00020D0022D24D0042D72D127E0102D31D02C
:1018F000202D35D0402D6BD138E0B5F5004F60D0AC
:1019000009DCB5F5007F49D0B5F5806F4CD0B5F551
:10191000006F5DD14FE0B5F5803F2DD0B5F5003FAC
:1019200056D12FE0A0682D4900F0F8F9064651E0A5
:10193000E068032100F0F2F906464BE0E068082178
:1019400000F0ECF9064645E0E068102100F0E6F909
:1019500006463FE02069032100F0E0F9064639E041
:101960002069082100F0DAF9064633E020691021E9
:1019700000F0D4F906462DE06068082100F0CEF9A9
:10198000064627E06068102100F0C8F9064621E00D
:10199000A069012100F0C2F906461BE0A0690221FE
:1019A00000F0BCF9064615E0A069042100F0B6F984
:1019B00006460FE00FE0A069702100F0AFF906467F
:1019C00008E06068042100F0A9F9064602E0FFE79C
:1019D000002600BF00E00026304670BD0101010076
:1019E0001AB143690B43436102E043698B4343618E
:1019F000704730B5024600200023146824F002042A
:101A00001460146844F00104146000E05B1C546826
:101A100004F001041CB94FF6FF74A342F6D15468D8
:101A200004F001040CB900206CE08C79012C04D185
:101A3000146844F08004146003E0146824F0800407
:101A40001460CC79012C04D1146844F04004146073
:101A500003E0146824F0400414600C7A012C04D1D3
:101A6000146844F02004146003E0146824F0200497
:101A700014604C7A012C04D1146844F010041460F2
:101A800003E0146824F0100414608C7A012C04D153
:101A9000146844F00804146003E0146824F0080497
:101AA0001460CC7A012C04D1146844F0040414604E
:101AB00003E0146824F0040414608C78A407CD7843
:101AC00044EA05640D7944EA05444D7944EA055435
:101AD0000D886D1E2C43D461146824F00104146039
:101AE000002300E05B1C546804F001041CB14FF6B5
:101AF000FF74A342F6D1546804F001040CB1002035
:101B000000E0012030BD10B500F5D87303EB0113E0
:101B10001B6803F004031372137A53B900F5D873EA
:101B200003EB01131B6840F2FF7404EA5353136084
:101B300009E000F5D87303EB01131B686FF06044F4
:101B400004EAD303536000F5D87303EB01131B6859
:101B500003F00203537200F5D87303EB01135B68C3
:101B600003F00F03937200F5D87303EB01135B6866
:101B70001B0AD37400F5D87303EB01139B68D3726F
:101B800000F5D87303EB01139B681C0A147300F56E
:101B9000D87303EB01139B681C0C547300F5D873C6
:101BA00003EB01139B681B0E937300F5D87303EBD3
:101BB0000113DB68D37300F5D87303EB0113DB6803
:101BC0001C0A147400F5D87303EB0113DB681C0CBA
:101BD000547400F5D87303EB0113DB681B0E937488
:101BE00021B9C36843F02003C36003E0036943F0F5
:101BF0002003036110BD10B502460020936803F076
:101C00008063B3F1806F00D110E0936803F000634C
:101C1000B3F1006F01D1012008E0936803F0805315
:101C2000B3F1805F01D1022000E00420042874D0C9
:101C300002F5C07303EB00131B6803F0010402F507
:101C4000C07303EB00131C600B7A7BB94B7A0C88D2
:101C500043EA445302F5C07404EB001424682343A0
:101C600002F5C07404EB0014236010E00B7A4C689A
:101C700043EAC4034C7A234302F5C07404EB001416
:101C80002468234302F5C07404EB001423608B7AAC
:101C900003F00F038B7202F5C07303EB00135B6854
:101CA00023F00F0402F5C07303EB00135C6002F530
:101CB000C07303EB00135B688C7A234302F5C07496
:101CC00004EB001463608B7B1C064B7B44EA0344EB
:101CD0000B7B44EA0323CC7A234302F5C07404EB64
:101CE0000014A3608B7C1C064B7C44EA03440B7CF1
:101CF00044EA0323CC7B234302F5C07404EB0014B5
:101D0000E36002F5C07303EB00131B6843F00104AA
:101D100002F5C07303EB00131C6010BD02460020E7
:101D200002EA01030BB1012000E00020704700002F
:101D300010B50949094800F077F958B10649074834
:101D400000F056F80021054800F086F804490348E1
:101D500000F068F810BD000000002020A0600240E4
:101D60000080202010B51049104800F05DF9C8B17E
:101D70000D490E4800F03CF807F0F2FD0AF0E6FAD3
:101D800001280FD00A490B48006809F0E1FC084817
:101D9000006838B14FF0805007490860BFF34F8F9B
:101DA000BFF36F8F10BD0000000800208864024060
:101DB0003C020020C001002004ED00E010B54FF00F
:101DC0002051094800F030F960B14FF02051064829
:101DD00000F00EF80021044800F03EF803490248E4
:101DE00000F020F810BD0000B86402400080002818
:101DF0000246094B9A4201D2084801E006481038D1
:101E000001F000531BB1064B0B40C36002E0044BD2
:101E10000B40836070470000106402400060024085
:101E20007D0F7D0F0246094B9A4201D2084801E01E
:101E30000648103801F000531BB1064B0B40C3603D
:101E400002E0044B0B4083607047000010640240C6
:101E5000006002407D0F7D0F21B1026842F0010257
:101E6000026003E0026822F0010202607047000095
:101E7000016821F001010160002101604160816081
:101E8000C1600161212141614A49884204D13D215B
:101E9000484A103A91608CE046491831884205D191
:101EA0004FF47461434A103A916082E04149303105
:101EB000884205D14FF474113E4A103A916078E09F
:101EC0003C494831884205D14FF07461394A103A93
:101ED00091606EE037496031884204D13649354A15
:101EE000103AD16065E033497831884204D13349F2
:101EF000304A103AD1605CE02E499031884204D1DA
:101F00002F492C4A103AD16053E02A49A83188421F
:101F100005D14FF03D51274A103AD16049E0294997
:101F2000884204D13D21274A083A116041E0254901
:101F30001831884205D14FF47461224A083A116081
:101F400037E020493031884205D14FF474111D4AE1
:101F5000083A11602DE01B494831884205D14FF005
:101F60007461184A083A116023E0164960318842CA
:101F700004D11149134A121F11601AE01149783136
:101F8000884204D10D490F4A121F116011E00D491A
:101F90009031884204D10A490A4A121F116008E0B0
:101FA0000849A831884204D14FF03D51054A121F1B
:101FB00011607047106002403D000020400F00207B
:101FC00000003D201064024021B1026842F48022EA
:101FD000026003E0026822F480220260704722B1AE
:101FE000036843F40023036003E0036823F4002341
:101FF000036001617047014600200A6802F0010297
:102000000AB1012000E0002070470146486880B214
:102010007047014600200A6802F400220AB101203C
:1020200000E000207047000030B503460A4600205B
:1020300000240B4DAB4201D20A4901E00849103996
:1020400002F000550DB14C6800E00C68064D2C40C4
:1020500004EA02050DB1012000E0002030BD0000BF
:1020600010640240006002407D0F7D0F10B501F04A
:1020700080034BB122B1436943F08003436103E025
:10208000436923F08003436180290BD02AB10368A0
:1020900001F01E042343036004E0036801F01E0402
:1020A000A343036010BD000010B500220268134B6B
:1020B0001A40CC680B6823434C6923438C69234343
:1020C000CC6923430C6A23434C6A23438C6A234321
:1020D0004C6B23438C6B23431A430260426922F00A
:1020E0000702D1E90B3423431A4342610B69436071
:1020F0004B6883608B68C36010BD00003F801CF09C
:10210000416070477047000070B50446002500BF6D
:1021100011E005EBC500294901EB8000C07CC0F34C
:10212000401018B1284605F0ADFF02E0284605F042
:10213000B5FF681CC5B2072DEBDD092C05D107F0F2
:102140008BFB09201E49087035E01D480078A0422D
:1021500001D01B4804701B48007878B91A480078F1
:10216000401C1949087008460078322805DD002017
:102170000870134800781349087070BD1348007840
:1021800070B91348007840B10020114908700D481B
:102190000078401E0B49087002E001200C490870CD
:1021A0000A480078401C094908700846007814283D
:1021B00001DD0020087000BFDFE70000C80A022030
:1021C000790100207C0100207D0100207A0100209F
:1021D0007B01002010B5044604EBC400454901EB27
:1021E0008000006804EBC401424A02EB81014860B0
:1021F0000AF0BCF804EBC4013E4A02EB810108601E
:1022000004EBC400114601EB8000C07CC0F38010D9
:10221000B0B104EBC40001EB8000C07C20F04000B2
:1022200004EBC40102EB8101C87404EBC400114645
:1022300001EB8000006804EBC40102EB8101C8607F
:1022400004EBC4002B4901EB8000806990B304EBE0
:10225000C401284A02EB81018869804758B304EB26
:10226000C400244901EB8000C07C20F02000203015
:1022700004EBC4011F4A02EB8101C87404EBC400E3
:10228000114601EB8000C07C20F08000803004EB20
:10229000C40102EB8101C87404EBC400114601EBD8
:1022A0008000006A28B304EBC40102EB8101086AD4
:1022B00080471EE00FE0FFE704EBC4000D4901EB8F
:1022C0008000C07C20F0800004EBC401094A02EBCE
:1022D0008101C8740DE004EBC400064901EB8000E5
:1022E000C07C20F0800004EBC401024A02EB8101B3
:1022F000C87410BDC80A022010B58CB00446302244
:1023000058496846FEF748F800209EE000EB40017F
:102310003DF8112000EBC001534B03EB8101098A0A
:1023200062F30B0100EBC00203EB8202118200EBAF
:1023300040016A4602EB41014A8800EBC00103EB11
:102340008101B1F8111062F30F1100EBC00203EB31
:102350008202A2F8111000EB40016A4602EB410133
:10236000097900EBC00203EB8202D27C61F34402E4
:1023700000EBC00103EB8101CA74002100EBC00235
:1023800003EB8202916100EBC00203EB8202D16198
:1023900000EBC00203EB8202116200EBC0011A469F
:1023A00002EB8101C97C21F00101491C00EBC00254
:1023B00003EB8202D17400EBC0011A4602EB8101EB
:1023C000C97C21F02001203100EBC00203EB820226
:1023D000D17400EBC0011A4602EB8101C97C21F0E7
:1023E0004001403100EBC00203EB8202D17400EBEC
:1023F000C0011A4602EB8101C97C21F080018031C5
:1024000000EBC00203EB8202D1749FED180A10EEBC
:10241000101A00EBC00203EB8202516100EBC00115
:102420001A4602EB81010C6000EBC00102EB810156
:102430004C6000EBC00102EB81018C6000EBC0013D
:1024400002EB8101CC60411CC8B20828FFF65EAFE8
:102450000748054988610748C861074808620CB009
:1024600010BD000070C80008C80A0220000000006B
:1024700021440008B9AB0008C3AB000809F076FF9F
:102480009E49086008460068FFF736FF392009F0CA
:10249000B1F832E109F06AFF9849086008209849CC
:1024A0000870984890F8330120F04001954880F872
:1024B000331190F8330120F02001924880F8331155
:1024C000002409E104EBC4008E4901EB8000C07CCC
:1024D00000F0010000B9FEE004EBC400894901EB03
:1024E0008000006885490968081A04EBC401854A20
:1024F00002EB8101098AC1F30B01884260D904EB28
:10250000C400114601EB8000C07CC0F3401008BB42
:1025100004EBC40001EB8000C07C20F040004030A0
:1025200004EBC40102EB8101C87404EBC400114642
:1025300001EB8000C07C20F02000203004EBC401BF
:1025400002EB8101C8746D48006804EBC40102EB22
:102550008101886004EBC4006A4901EB8000C07C03
:10256000C0F343006649097801EBC101654A02EBFB
:102570008101C97CC1F34301884201DD60490C70CF
:10258000604890F8330120F0400040305D4981F808
:102590003301084690F8330120F02000203081F804
:1025A000330104EBC40001EB8000C069002806D0B1
:1025B00004EBC401534A02EB8101C869804789E0FA
:1025C00004EBC4004F4901EB8000C0684B49096827
:1025D000081A04EBC4014B4A02EB8101B1F8111057
:1025E000B0EB111F1BD204EBC400114601EB8000BD
:1025F000C07C20F0400004EBC40102EB8101C874F0
:1026000004EBC400114601EB8000C07C20F02000E8
:10261000203004EBC40102EB8101C8745AE004EBE2
:10262000C400384901EB8000C07C20F0400004EB7E
:10263000C401344A02EB8101C87404EBC4001146A2
:1026400001EB8000C07CC00968B104EBC40001EB61
:102650008000C07C20F02000203004EBC40102EB9D
:102660008101C8740DE004EBC400264901EB800031
:10267000C07C20F0200004EBC401224A02EB81015F
:10268000C87404EBC4001F4901EB8000006804EB30
:10269000C4011C4A02EB8101496888421AD904EB43
:1026A000C400114601EB8000006804EBC40102EB9A
:1026B00081014968401A00EE100AF8EE400A9FEDC9
:1026C000121A81EE200A10EE100A04EBC40102EB8C
:1026D0008101486100BF641C082CFFF6F3AE084975
:1026E0000978491CC8B2FFF70FFD0A2008F082FFE5
:1026F000002008F029FE05490860CBE6740100209F
:1027000078010020C80A022000007A4470010020ED
:1027100010B54FF4807000F011F840B14FF48070A4
:1027200000F006F807F024F9172002F0BBF810BDFE
:102730000149086070470000143C01400146002038
:10274000034A12680A400AB1012000E000207047E5
:10275000143C0140002123498279002A3AD00A46DC
:10276000126803689A430B461A600A1D12680368D0
:102770009A430B1D1A60027911440A6803681A43D0
:102780000A60184A0832126803689A43154B0833E6
:102790001A601A1D126803689A43124B0C331A60B0
:1027A0004279102A0ED11A1F126803681A430D4B82
:1027B00008331A601A1D126803681A43094B0C3358
:1027C0001A600DE00749427911440A6803681A4308
:1027D0000A6005E0027911440A6803689A430A60B6
:1027E00070470000003C014001490860704700004C
:1027F0000C3C024070B504460A460026092502B981
:1028000009E0012A01D1160205E0022A01D11602CF
:1028100001E04FF4407600F09FF80546092D28D1DD
:102820001548006820F440701349086008460068A5
:10283000304308600846006820F0F8000860084649
:10284000006844F0020108430B490860084600682C
:1028500040F48030086000F07FF8054606480068C4
:1028600020F00200044908600846006820F0F800E3
:102870000860284670BD0000103C02400920134942
:10288000096801F48031B1F5803F01D101201CE0DD
:102890000E49096801F0100109B1062015E00B4945
:1028A000096801F4807109B102200EE00749096846
:1028B00001F0E00109B1072007E00449096801F0CF
:1028C000020109B1082000E0092070470C3C0240D9
:1028D0000348006840F0004001490860704700006C
:1028E000103C024030B502460C46092500F034F891
:1028F0000546092D19D10E48006820F440700C4996
:1029000008600846006840F40070086008460068E7
:1029100040F001000860146000F01EF8054604480D
:10292000006820F0010002490860284630BD000020
:10293000103C02400548006800F0004028B10448FF
:1029400002490C390860034808607047103C024097
:1029500023016745AB89EFCD08B509200090FFF74B
:102960008DFF009002E0FFF789FF00909DF80000C6
:102970000128F8D09DF8000008BD10B52DED028BA0
:10298000044614B9BDEC028B10BD606890ED010ADD
:1029900084ED6B0AB4F89A11D4F8EC20108806F094
:1029A000ABFF84ED690AA06890ED010A84ED6D0A21
:1029B000606890ED000A84ED330AB4F8BA10E2685A
:1029C000108806F099FF84ED310AD4ED690AB0EE63
:1029D000600AFDF76BFCA068D0ED020A20EE208AA9
:1029E000D4ED690AB0EE600AFDF79CFCA068D0ED5A
:1029F000000A00EE608A84ED358A00BFC2E700005D
:102A000010B5044605F0A6FBE06005F09BFBC4F89A
:102A1000EC0005F08FFB606005F090FBA06005F016
:102A20001BFC2060002184F8B91084F8B81084F8E9
:102A3000991184F898119FED402ADFED401AB2EE0B
:102A4000041ADFED3E0AB2EE040A04F1100000F0B1
:102A50007FF89FED3A2ADFED391AB2EE001ADFED6A
:102A6000370AB2EE040A04F1400000F071F8DFED1D
:102A7000340A9FED340A344A002104F1700001F059
:102A80009BF99FED2E2ADFED2D1AB2EE0E1ADFED27
:102A90002B0AB2EE040A04F1F00000F059F89FEDA1
:102AA000272ADFED261AB2EE0E1ADFED240AB2EE67
:102AB000040A04F5907000F04BF8DFED210A9FED59
:102AC000210A224A002104F5A87001F075F904F1E9
:102AD000100000F06FFB04F1400000F06BFB04F10C
:102AE000700001F099F904F1F00000F063FB04F5C7
:102AF000907000F05FFB04F5A87001F08DF920469E
:102B0000FFF73BFF94ED330A84ED340A94ED310A6C
:102B100084ED320A94ED350A84ED360A94ED6B0AA1
:102B200084ED6C0A94ED690A84ED6A0A94ED6D0AED
:102B300084ED6E0A10BD00009A99993E00000000D5
:102B400000409C450060EA46ACC80008A0C80008E8
:102B500000B9704780ED001AC0ED011A80ED022A1D
:102B6000DFED062AC0ED052ADFED042AC0ED042AB8
:102B7000C0ED070A80ED060A00BFEAE7000000008A
:102B800010B5044604B910BD204605F09BFB00BFFC
:102B9000F9E70000C92008F02DFD3648FFF730FFA7
:102BA00007F0A6FF344806F05BFB05E0012008F0C3
:102BB00021FD3048FFF7E1FE012008F0F9F9002877
:102BC000F4D1022008F0F4F90028EFD1032008F036
:102BD000EFF90028EAD1284806F0D6FB48E025485E
:102BE000FFF7CEFF244806F029FC234806F092FBAD
:102BF000214806F041FB204805F0FCFC1F480088F6
:102C000000B21F4908801C48008900B21D49088095
:102C10001948008B00B21C490880012008F0C8F94F
:102C200038B1022008F0C4F918B1032008F0C0F947
:102C3000B0B9002008F0BCF930B100231A4619469B
:102C40001846FEF73FFD0BE000230D48B0F90020C9
:102C50000D48B0F900100B48B0F90000FEF732FD46
:102C6000012008F0C7FC002008F06EFB074908604F
:102C7000B5E700000C0C0220F40D02201003002028
:102C8000B4010020B0010020B2010020AC010020FE
:102C900000B585B00121022001F0E4F8012188038C
:102CA00001F010F90821012001F0F4FE4FF48070CA
:102CB000009000208DF8040001208DF8060000200F
:102CC0008DF8070003208DF805006946114800F0D3
:102CD00023F84FF48070029000208DF80C0008203B
:102CE0008DF80D0001208DF80E0002A8FFF732FDCF
:102CF00017208DF8100005208DF8110000208DF8A8
:102D0000120001208DF8130004A800F017FF05B091
:102D100000BD000000040240F0B50A460021002377
:102D2000002400BF3DE0012505FA01F3156805EA1E
:102D300003049C4234D105684F000326BE40B543CE
:102D4000056015794E00B540066835430560157974
:102D5000012D02D01579022D16D185684F0003266A
:102D6000BE40B543856055794E00B5408668354311
:102D70008560456801268E40B54345604568967973
:102D80008E40B6B235434560C5684F000326BE404D
:102D9000B543C560D5794E00B540C6683543C560BA
:102DA000491C1029BFD3F0BDF0B5002300244D0706
:102DB000ED0E02FA05F3CE1000F1200555F826506D
:102DC0004E07F70E0F26BE40B543CF1000F1200688
:102DD00046F82750CE1000F1200555F8265045EA58
:102DE0000304CE1000F1200545F82640F0BD024650
:102DF000002013690B400BB1012000E00020704758
:102E0000418370470183704742694A40426170477D
:102E1000014600205C4A914203D2B1F1006F00D319
:102E2000B0E05A4A914204D2574A914201D3082055
:102E3000A8E0574A914204D2544A914201D310204B
:102E4000A0E0544A914204D2514A914201D3182041
:102E500098E0514A914204D24E4A914201D3202037
:102E600090E04E4A914204D24B4A914201D328202D
:102E700088E04B4A914204D2484A914201D3302023
:102E800080E0484A914204D2454A914201D3382019
:102E900078E0454A914204D2424A914201D340200F
:102EA00070E0424A914204D23F4A914201D3482005
:102EB00068E03F4A914204D23C4A914201D35020FB
:102EC00060E0B1F1016F04D2394A914201D3582038
:102ED00058E0384A914204D2B1F1016F01D3802009
:102EE00050E0354A914204D2324A914201D38820BF
:102EF00048E0324A914204D22F4A914201D39020B5
:102F000040E02F4A914204D22C4A914201D39820AA
:102F100038E02C4A914204D2294A914201D3A020A0
:102F200030E0294A914204D2264A914201D3A82096
:102F300028E0264A914204D2234A914201D3B0208C
:102F400020E0234A914204D2204A914201D3B82082
:102F500018E0204A914204D21D4A914201D3C02078
:102F600010E01D4A914204D21A4A914201D3C8206E
:102F700008E01A4A914204D2174A914201D3D02064
:102F800000E0D820704700000040000800800008E2
:102F900000C000080000010800000208000004084A
:102FA000000006080000080800000A0800000C08DD
:102FB00000000E08004010080080100800C0100833
:102FC0000000110800001208000014080000160894
:102FD0000000180800001A0800001C0800001E0865
:102FE000014600205D4A914204D2B1F1006F01D345
:102FF0001046B2E05A4A914204D2584A914201D353
:103000005748AAE0574A914204D2554A914201D307
:103010005448A2E0544A914204D2524A914201D308
:1030200051489AE0514A914204D24F4A914201D309
:103030004E4892E04E4A914204D24C4A914201D30A
:103040004B488AE04B4A914204D2494A914201D30B
:10305000484882E0484A914204D2464A914201D30C
:1030600045487AE0454A914204D2434A914201D30D
:10307000424872E0424A914204D2404A914201D30E
:103080003F486AE03F4A914204D23D4A914201D30F
:103090003C4862E0B1F1016F05D23A4A914202D355
:1030A0004FF0016059E0384A914204D2B1F1016F0A
:1030B00001D3104651E0354A914204D2324A91423E
:1030C00001D3324849E0324A914204D22F4A914218
:1030D00001D32F4841E02F4A914204D22C4A914219
:1030E00001D32C4839E02C4A914204D2294A91421A
:1030F00001D3294831E0294A914204D2264A91421B
:1031000001D3264829E0264A914204D2234A91421B
:1031100001D3234821E0234A914204D2204A91421C
:1031200001D3204819E0204A914204D21D4A91421D
:1031300001D31D4811E01D4A914204D21A4A91421E
:1031400001D31A4809E01A4A914204D2174A91421F
:1031500001D3174801E04FF00260704700400008BB
:103160000080000800C000080000010800000208FC
:1031700000000408000006080000080800000A0813
:1031800000000C0800000E08004010080080100825
:1031900000C0100800001108000012080000140808
:1031A000000016080000180800001A0800001C089B
:1031B00000001E0800B970479FED090A80ED040A5F
:1031C00080ED030A80ED050A9FED050A80ED0A0AED
:1031D00080ED090A80ED080A80ED0B0A00BFEAE7DE
:1031E0000000000000BFFEE7F0B50546059C00208A
:1031F0007FE093ED050A00EB4006404F07EB8606A3
:10320000D6ED000A20EE200AD3ED060A00EB4006B8
:1032100007EB860696ED011A00EE810AD3ED070A48
:1032200000EB400607EB860696ED021A00EE810AD7
:10323000334E06EB8006D6ED000A30EE200A05EB91
:10324000800686ED000A93ED010A00EB40062D4F43
:1032500007EB8606D6ED000A20EE200AD3ED020A1F
:1032600000EB400607EB860696ED011A00EE810A98
:10327000D3ED030A00EB400607EB860696ED021A33
:1032800000EE810A204E06EB8006D6ED000A30EEF5
:10329000200A01EB800686ED000A94ED010A00EB9E
:1032A00040061A4F07EB8606D6ED000A20EE200AEC
:1032B000D4ED020A00EB400607EB860696ED011AF4
:1032C00000EE810AD4ED030A00EB400607EB860608
:1032D00096ED021A00EE810A0D4E06EB8006D6ED41
:1032E000000A30EE200A02EB800686ED000A461C3A
:1032F000F0B20328FFF67DAFF0BD0000C80100204A
:10330000680E0220EC010020740E02201002002042
:10331000900E022010B52DED028BB0EE408A2748AA
:10332000007838B304F08EFF00EE100AB8EEC00A41
:10333000F0EE408AF0EE680AB0EE480A204800F04D
:1033400043FC1F4890ED080AB5EEC00AF1EE10FAF2
:1033500003D29FED1C0A80ED080A194890ED080A77
:10336000BCEEC00A10EE100A84B22146164802F0E4
:1033700066F820E004F066FF00EE100AB8EEC00A1E
:10338000B4EEC80AF1EE10FA10D210480078401CD2
:103390000E49087008460078C82807DD0120074953
:1033A00008709FED0B0A064880ED0A0A41F287314A
:1033B000054802F044F8BDEC028B10BD3402002039
:1033C000DC0E022000000000000400403802002053
:1033D00000401C4508B5072008F00CF900BF06F0B6
:1033E000FDFA0028FBD100BF06F030F90028FBD120
:1033F00006F03AFC044608F057FFA4490860FFF7BE
:1034000047FC1722A249A34801F086FA012211467F
:10341000A14801F009FB012202219F4801F004FBB1
:103420000021102001F026FA2FE100BF4FF0FF31FC
:10343000012007F0FDFE0128F8D198499448401C6E
:1034400006F03AFB96499248103006F047F9944846
:10345000924B944A944900909448FFF7C5FE8F48D8
:10346000007800F00100002846D091480078E8BBC1
:10347000012141F2883001F01FFDDFED8E0A9FED42
:103480008E0A8E4A01218E4800F096FC854A8649B4
:103490008C48FDF7DDFB8C4B1A1F111F894804F087
:1034A0005DFE814890ED000A884880ED000A88485A
:1034B00080ED000A874880ED000A7B4890ED010A04
:1034C000824880ED010A824880ED010A814880ED42
:1034D000010A754890ED020A7C4880ED020A7C489A
:1034E00080ED020A7B4880ED020A00E005E07048AA
:1034F0000078401C6E490870BBE0754890ED000AEA
:10350000744880ED000A714890ED000A704880ED23
:10351000000A90ED000A7048D0ED000A20EE200A63
:103520006C48D0ED000A6C4890ED011A00EE810A5B
:103530005D48D0ED000A684890ED021A00EE810A5D
:10354000624880ED000A624890ED010A614880ED12
:10355000010A5E4890ED010A5D4880ED010A90ED98
:10356000010A5D48D0ED000A20EE200A5948D0ED4E
:10357000010A594890ED011A00EE810A4A48D0ED3F
:10358000010A554890ED021A00EE810A4F4880ED7D
:10359000010A4F4890ED020A4E4880ED020A4B485E
:1035A00090ED020A4A4880ED020A90ED020A4A486C
:1035B000D0ED000A20EE200A4648D0ED020A464827
:1035C00090ED011A00EE810A3748D0ED020A424818
:1035D00090ED021A00EE810A3C4880ED020A314B60
:1035E000024632499FED3D0A3648FDF7A9FC364BAD
:1035F0001A1F111F334804F0B1FD39480088B8B9CB
:10360000384890ED000A384880ED000A354890EDC2
:10361000010A354880ED010A324890ED020A32482D
:1036200080ED020A2E480088401C2D49088020E0C9
:103630002B480088B0F5FA7F0FDA42F210715F2054
:1036400002F02EFF2948007898B114480278244BE4
:103650001649254805F048FF0BE021480088B0F5E1
:10366000FA7F06D102F014FF1D480088401C1C4957
:1036700008800A48D0ED040AB0EE600AFFF74AFE5F
:10368000002007F061FE1A490860CEE6C001002064
:10369000240E0220B8C80008005001403C0E022051
:1036A000800E0220B40E0220A80E02209C0E0220E2
:1036B000350200200080894500A08C45D0C8000854
:1036C000DC0E0220CC0E0220C80E02203C0F02208D
:1036D000300F0220240F0220DCC800086F12833A4A
:1036E000360200205C0E0220680E02203402002008
:1036F000C401002070B506460C46154615480078F2
:1037000038B3288888B9144890ED000A134880ED32
:10371000000A114890ED010A104880ED010A0E4898
:1037200090ED020A0D4880ED020A0D4802782B4602
:103730000C490A4805F0D8FE084890ED000A84EDCF
:10374000000A90ED010A84ED010A90ED020A84ED71
:10375000020A70BD340200205C0E0220680E0220B6
:103760003C0E02209C0E022091ED000A054A82EDDB
:10377000000A91ED010A82ED010A91ED020A82ED43
:10378000020A70475C0E02202DE9F0438FB0074615
:103790000C4615461E46DDE916892846FEF768FBED
:1037A00000BF2846FEF727FC0028FAD100960194B6
:1037B000CDF808800390CDF8109005904FF480600C
:1037C000069000200790089009904FF480300A90EE
:1037D00004200B9003200C9000200D900E90694661
:1037E0002846FEF761FC01224021384601F0B9FF6E
:1037F00001212846FEF730FB0FB0BDE8F0832DE92C
:10380000F0438FB007460C4615461E46DDE9168983
:103810002846FEF72DFB00BF2846FEF7ECFB0028EC
:10382000FAD100960194CDF808800390CDF810905D
:1038300005904FF480600690002007900890099052
:103840004FF480300A9004200B9003200C9000204D
:103850000D900E9069462846FEF726FC0122402175
:10386000384601F07EFF01212846FEF7F5FA0FB039
:10387000BDE8F0832DE9F04790B007460C461546A9
:103880001E46DDE9199ADDF860802846FEF7F0FA59
:1038900000BF2846FEF7AFFB0028FAD1009601943E
:1038A000CDF8088040200390CDF8109000200590BE
:1038B0004FF48060069000200790089009904FF424
:1038C00080300A9000200B9003200C9000200D9077
:1038D0000E9069462846FEF7E7FB0AF0FF008DF8D8
:1038E0003C0000208DF83D008DF83E0001208DF851
:1038F0003F000FA800F022F901228021384601F094
:1039000030FF00212846FEF7A7FA012210212846A1
:10391000FEF7ACFB10B0BDE8F0872DE9F04790B0A2
:1039200007460C4615461E46DDE9199ADDF860800B
:103930002846FEF79DFA00BF2846FEF75CFB0028EC
:10394000FAD100960194CDF8088040200390CDF87C
:103950001090002005904FF48060069000200790A2
:10396000089009904FF480300A9000200B900320BB
:103970000C9000200D900E9069462846FEF794FBAF
:103980000AF0FF008DF83C000D208DF83D0000206E
:103990008DF83E0001208DF83F000FA800F0CEF812
:1039A00001228021384601F0DCFE00212846FEF786
:1039B00053FA012210212846FEF758FB10B0BDE84B
:1039C000F087000010B588B004460121084600F0D9
:1039D00049FA0121480400F055FA0121480500F098
:1039E00041FA072202212348FFF7DEF907220321CB
:1039F0002048FFF7D9F90C20059002208DF8180017
:103A000000208DF81A0001208DF81B0002208DF88F
:103A1000190005A91748FFF77FF901940020ADF8B8
:103A20000800ADF80A00ADF80C00ADF810000C204D
:103A3000ADF80E0001A9104801F064FF01210E4805
:103A400001F083FE012240F224410B4801F034FFD3
:103A500026208DF81C0007208DF81D0000208DF811
:103A60001E0001208DF81F0007A800F067F808B0BD
:103A700010BD0000000002400044004010B588B0B6
:103A800004460121402000F0EDF90121202000F042
:103A900019FA0121880500F0E5F9082209212348D7
:103AA000FFF782F908220E212048FFF77DF94FF435
:103AB0008440059002208DF8180000208DF81A002F
:103AC00001208DF81B0002208DF8190005A9174868
:103AD000FFF722F901940020ADF80800ADF80A00C4
:103AE000ADF80C00ADF810000C20ADF80E0001A9E7
:103AF0000F4801F007FF01210D4801F026FE0122C9
:103B000040F224410A4801F0D7FE47208DF81C00FE
:103B100002208DF81D0000208DF81E0001208DF878
:103B20001F0007A800F00AF808B010BD00180240F6
:103B30000014014000BFFEE77047000070B500218F
:103B400000230F22C4781CB3174C246804F4E064EB
:103B5000C4F5E064C4F30721C1F10404E3B20A41EF
:103B600044789C40E1B28478144021430C07210E34
:103B70000E4C05786155047804F01F050124AC4013
:103B800005786D11AD0005F1E025C5F8004109E0AB
:103B9000047804F01F050124AC40054D0678761129
:103BA00045F8264070BD00000CED00E000E400E0A8
:103BB00080E100E002490143024A116070470000C1
:103BC0000000FA050CED00E0B0EE401A10B99FEDD0
:103BD000790A704790ED100A80ED110A90ED0F0AF6
:103BE00080ED100AC0ED060A80ED071A30EEC10A1A
:103BF00080ED0F0A0178002975D190ED010AD0ED12
:103C00000F1A20EE210A80ED090A90ED0A0AD0ED84
:103C1000021A90ED0F2A01EE820A80ED0A0A90ED59
:103C20000D0A80ED0E0A90ED0C0A80ED0D0A90ED64
:103C30000F0AD0ED101A30EE610A80ED0C0A90EDFB
:103C4000030AD0ED0C1A20EE210A80ED0B0A90ED4C
:103C50000A0AD0ED051AB4EEE10AF1EE10FA04DD1D
:103C600090ED050A80ED0A0A10E090ED0A0AD0ED09
:103C7000051AF1EE611AB4EEE10AF1EE10FA05D27E
:103C800090ED050AB1EE400A80ED0A0A90ED090AAE
:103C9000D0ED0A1A30EE210AD0ED0B1A30EE210ACF
:103CA00080ED080A90ED080AD0ED041AB4EEE10A9E
:103CB000F1EE10FA04DD90ED040A80ED080A76E0DA
:103CC00090ED080AD0ED041AF1EE611AB4EEE10AA3
:103CD000F1EE10FA6BD290ED040AB1EE400A80EDDD
:103CE000080A64E0FFE70178012960D190ED0F0A2E
:103CF000D0ED101A30EE610AD0ED011A20EE210A43
:103D000080ED090A90ED020AD0ED0F1A20EE210A8B
:103D100080ED0A0A90ED0D0A80ED0E0A90ED0C0A76
:103D200080ED0D0A90ED0F0AD0ED101AB0EE002ACA
:103D300002EE610AD0ED111A30EE210A80ED0C0A74
:103D400090ED030AD0ED0C1A20EE210A80ED0B0A4B
:103D500090ED090AD0ED0A1A30EE210AD0ED0B1AC7
:103D600030EE210AD0ED081A30EE210A80ED080A63
:103D700090ED080AD0ED041AB4EEE10AF1EE10FA63
:103D800004DD90ED040A80ED080A10E090ED080AC9
:103D9000D0ED041AF1EE611AB4EEE10AF1EE10FA78
:103DA00005D290ED040AB1EE400A80ED080A90EDCC
:103DB000080A0EE70000000000B102B97047017068
:103DC00092ED001A80ED011A92ED011A80ED021AAF
:103DD00092ED021A80ED031A80ED040AC0ED050A87
:103DE0009FED0C1A80ED0E1A80ED0D1A80ED0C1A65
:103DF0009FED081A80ED081A80ED0B1A80ED0A1A63
:103E000080ED091A80ED111A80ED101A80ED0F1A5D
:103E100000BFD3E70000000000B970479FED100A13
:103E200080ED110A80ED100A80ED0F0A9FED0C0A5B
:103E300080ED0E0A80ED0D0A80ED0C0A9FED080A58
:103E400080ED0B0A80ED0A0A80ED090A80ED080A70
:103E50009FED030A80ED060A80ED070A00BFDCE74C
:103E60000000000029B1064A12680243044B1A60A0
:103E700004E0034A12688243014B1A607047000055
:103E80003038024029B1064A12680243044B1A60D6
:103E900004E0034A12688243014B1A607047000035
:103EA0004038024029B1064A12680243044B1A60A6
:103EB00004E0034A12688243014B1A607047000015
:103EC0002038024029B1064A12680243044B1A60A6
:103ED00004E0034A12688243014B1A6070470000F5
:103EE0004438024029B1064A12680243044B1A6062
:103EF00004E0034A12688243014B1A6070470000D5
:103F000024380240F0B500210022002402250026BA
:103F10000223324F3F6807F00C0121B1042905D07C
:103F2000082937D105E02E4F076036E02D4F076096
:103F300033E02A4F3F1F3F68C7F38056274F3F1F8C
:103F40003F6807F03F036EB1264FB7FBF3F7DFF88A
:103F50008CC0ACF1040CDCF800C0CCF3881C07FB6F
:103F60000CF40CE01E4FB7FBF3F7DFF870C0ACF1B8
:103F7000040CDCF800C0CCF3881C07FB0CF4174FD2
:103F80003F1F3F68C7F301477F1C7D00B4FBF5F777
:103F9000076002E0124F076000BF00BF0F4F3F688D
:103FA00007F0F0010909104F7A5C0768D7404760B5
:103FB0000A4F3F6807F4E051890A0B4F7A5C476863
:103FC000D7408760054F3F6807F46041490B064FB3
:103FD0007A5C4768D740C760F0BD000008380240EF
:103FE0000024F400001BB7001400002070B590B04E
:103FF00004460E46154601214A48FFF733FF0121CA
:104000001020FFF75FFF01211020FFF76BFF002159
:104010001020FFF767FF072211464348FEF7C4FE52
:1040200080200E9002208DF83C0000208DF83E008C
:1040300003208DF83D0000208DF83F000EA93A487E
:10404000FEF76AFE394801F095FB39480A900020D6
:10405000ADF82C00ADF82E004FF48060ADF83000C4
:104060000420ADF832000020ADF834000AA92F4832
:1040700001F048FC012240212C4801F072FB102184
:104080002A4801F059FB012240F22441274801F05F
:1040900013FC0121254801F058FB25208DF83C0038
:1040A00004208DF83D0000208DF83E0001208DF8A1
:1040B0003F000FA8FFF742FD1E48FDF7D9FE4FF065
:1040C000006001901948001D0290039400200490A4
:1040D000059506904FF480600790002008900990A5
:1040E0004FF480700A904FF440300B9000200C90F9
:1040F0000D900E900F9001A90E48FDF7D5FF0022FC
:1041000031460C48FDF76BFF01210A48FDF75CFFC3
:1041100000210848FDF7A0FE01210648FDF79CFE9E
:1041200010B070BD020040000004024000100140C9
:10413000A0860100406402400146002901DD0846D6
:104140007047484200B2FBE710B50020AB49087049
:1041500017E0AA48007800EB800101EBC000A849F5
:1041600008440079C00938B10020A6490880A64952
:104170000880A649087010BDA0480078401C9F49DF
:1041800008709E4800780528E3DBA048007878B9DD
:104190009D480088B0F5FA6F0ADD08F0E7F89C4901
:1041A00008600120994908700020974908803BE089
:1041B00096480078022811D193480088B0F5FA6F2C
:1041C0000CDD0020914908708F4908808C48407CA4
:1041D00020F0800080308A49487425E08B480078C0
:1041E000032821D188480088B0F5FA6F1CDD002033
:1041F00086490870844908808148807F20F08000CB
:1042000080307F49887704F02BF8BDEEC00A10EEAD
:10421000100A0A3040B27F494870084690F9010000
:104220002D2801DD2D2048707B480068B0F9000082
:1042300010F5167F27DA78480068B0F9020010F50B
:10424000167F20DA74480068B0F90400B0F5167FD4
:1042500019DD71480068B0F9060010F5167F12DA12
:104260006D480068807A02280DD16B480068C07ADA
:10427000022808D16548007828B963480088401CA6
:104280006149088066E064480068B0F90000B0F554
:10429000167F2ADD60480068B0F90200B0F5167F8D
:1042A00023DD5D480068B0F9040010F5167F1CDAC4
:1042B00059480068B0F90600B0F5167F15DD56487C
:1042C0000068807A022810D153480068C07A02281A
:1042D0000BD14E48007840B14B480088401C4A49F9
:1042E000088002204949087034E04B480068B0F962
:1042F0000000B0F5167F2ADD47480068B0F90200DB
:1043000010F5167F23DA44480068B0F9040010F570
:10431000167F1CDA40480068B0F9060010F5167FD9
:1043200015DA3D480068807A022810D13A480068C2
:10433000C07A02280BD13548007840B13248008855
:10434000401C3149088003203049087002E00020F9
:104350002D49088008F00AF83049086008460068CE
:104360002B490968401A44F62061884203D900208D
:1043700026490870FFE62948006825490968401A5F
:1043800042F2107188420AD92148006838B11F48AA
:10439000007820B149001F2002F082F810E01F4889
:1043A00000681B490968401A0AD01948006838B1EA
:1043B0001648007820B142F210715F2002F070F8C8
:1043C0001248007820B10F480088401C0D49088031
:1043D0000C480088B0F5C87F05DD0C48007810B1A6
:1043E00000200849088007480088C82804DD0748DD
:1043F000007808B102F04CF800BFBCE615010020BF
:104400003C0702201C0100201E010020200100208A
:1044100018010020D8000020D40000201001002046
:1044200010B52449B1F90000FFF786FEB0F52F7FE3
:1044300000DD24E01F49B1F90200FFF77DFEB0F571
:104440002F7F00DD1BE01B49B1F90400FFF774FE6C
:10445000B0F52F7F00DD12E01649B1F90600FFF735
:104460006BFEB0F52F7F00DD09E01248807A00B9BD
:1044700005E01048C07A00B901E0002010BD00201E
:104480000C49088048808880C88008810220887292
:1044900002210848C1720020064988810021054890
:1044A000C18101828174C174002002498882012087
:1044B000E4E70000480F022010B504460021104830
:1044C00001F043F900210F48FDF7C6FC21460D48D5
:1044D000FDF716FE10210A4801F02EF94FF0815128
:1044E0000848FDF785FC08490648FDF79BFC0121BB
:1044F0000448FDF7B1FC0121014801F026F910BD87
:1045000000100140406402400080201010B50021DE
:10451000014801F01AF910BD0010014000B101B9C5
:1045200070470278437842EA0322C2F30A020A8003
:104530004278D210837842EA4312C2F30A024A80D8
:1045400082789211C37842EA8302037942EA832295
:10455000C2F30A028A8002795210437942EAC312F6
:10456000C2F30A02CA804279C2F301128A72427906
:1045700012119308CB728279C37942EA032212B2F4
:104580008A81027A437A42EA032213B201F10C02D1
:10459000CB81827AC37A42EA032213B201F10C0280
:1045A0000B82037B8B74437BCB74827BC37B42EA9D
:1045B00003228A82027C437C42EA032212B20A81ED
:1045C0000A88A2F5806212B20A804A88A2F5806247
:1045D00012B24A808A88A2F5806212B28A80CA88A2
:1045E000A2F5806212B2CA800A89A2F5806212B274
:1045F0000A8100BF94E7000000206749886006F048
:104600002BFA4FF4E1614FF4FA6006F0EBFB1CE08B
:1046100005F0CEF8032006F0EDFF60480088801C0E
:104620005E4908800846008800F5FA715C4800F091
:1046300004FF5A480088B0F5967F04DB4FF47A7087
:1046400006F0D8FF02E005F095F8E1E700BFA2E030
:1046500003F002FE5349086008460068807A022889
:1046600002D106F01DFC01E006F026FC4E48008851
:10467000C0F57A714A4800F0E0FE474880684B492F
:10468000086048480068C07C30B946480068B0F906
:10469000060010F5E17F0DDA43480088401C4249CE
:1046A000088008460088B0F5D27F27DB4FF4D2702F
:1046B000088023E03B480068B0F90600B0F5D27FDF
:1046C0000BDB39480088401E3749088008460088BF
:1046D000022813DC0220088010E033480088401EC6
:1046E0003149088008460088B0F5D27F06DC0846CC
:1046F0000088322802DB4FF4D27008802648C08838
:104700000A2807DA2448007920B92348C088C01C49
:104710002149C8802048C0880A2807DB1E48007944
:1047200020B901201C4908710020C8801D4800687C
:10473000807C10B101201849C87040211C48FEF748
:1047400056FB012808D106F0B3F913498860002010
:104750000871C880C8701BE00F48C078012806D0D7
:1047600010480068B0F9060010F5117F0DDC0A480A
:104770000079012809D140210D48FEF738FB20B906
:1047800006F096F90449886002E00020024988603A
:10479000032006F02FFF5BE7901202201403002095
:1047A000000800400803002016030020100300202A
:1047B0000020024000B587B001212020FFF752FB06
:1047C00001210805FFF77EFB4FF460700590022081
:1047D0008DF8180000208DF81A0001208DF81B00BC
:1047E00003208DF8190005A92048FEF795FA052247
:1047F00007211E48FEF7D8FA052208211B48FEF7BC
:10480000D3FA052209211948FEF7CEFA012108053D
:10481000FFF768FB00214FF48010FFF763FB0020D7
:10482000ADF800004FF48270ADF802000020ADF842
:1048300004000220ADF806000120ADF80800400297
:10484000ADF80A003820ADF80C000020ADF80E00DD
:104850000720ADF810006946054800F0FCF801217A
:10486000034800F0D5F807B000BD00000014024076
:10487000005001400A4A12884FF2C7731A40084B91
:104880001A801A46128802431A801A4612880A436E
:104890001A801A46128842F040021A8070470000BF
:1048A0000050014010B5044600211848FDF7D4FA25
:1048B000002116481830FDF7CFFA00BF1348FDF766
:1048C0009AFB0028FAD100BF10481830FDF793FB7F
:1048D0000028F9D10E490D481830FDF789FA0D4925
:1048E0000A48FDF785FA21460848FDF709FC2146EC
:1048F00006481830FDF704FC012104481830FDF784
:10490000ABFA01210148FDF7A7FA10BD706402401F
:10491000000C00203000002070B590B005460E4617
:10492000144601218805FFF79DFA44208DF83C00CC
:1049300005208DF83D0000208DF83E0001208DF807
:104940003F000FA8FFF7FAF82F48FDF791FA00BFD4
:104950002D48FDF750FB0028FAD14FF06060009021
:104960002A480190029600200390049405904FF489
:104970008060069000200790089009904FF4403026
:104980000A9000200B900C900D900E9069461E48E6
:10499000FDF78AFB012210211B48FDF767FB002170
:1049A0001948FDF759FA18481838FDF761FA00BFA1
:1049B00015481838FDF71FFB0028F9D14FF080602B
:1049C000009012480190029540200390049400202A
:1049D00005904FF4806006900020079008900990A1
:1049E0004FF480300A9000200B900C900D900E90A8
:1049F000694605481838FDF757FB0021024818386A
:104A0000FDF72AFA10B070BD886402400C500140D6
:104A100021B1028842F04002028004E002884FF691
:104A2000BF731A40028070471AB183880B4383809A
:104A300002E083888B4383807047024600201389FD
:104A40000B400BB1012000E000207047014688892F
:104A500070478181704710B50022028802F44152EC
:104A60000B884C8823438C882343CC8823430C89B0
:104A700023434C8923438C892343CC8923431A4302
:104A80000280838B4FF2FF74234083830B8A03825F
:104A900010BD000030B500228B071C0F0F2303FA56
:104AA00004F20B4B8C1053F824309343084C8D10B8
:104AB00044F8253023468C1053F824308C07240FFB
:104AC00000FA04F42343024C8D1044F8253030BD25
:104AD000083801400CB50020019000904148006862
:104AE00040F480303F49086000BF3E48006800F451
:104AF000003000900198401C0190009818B901986E
:104B0000B0F5A04FF1D13748006800F4003010B183
:104B10000120009001E0002000900098012860D161
:104B200030484030006840F080502E4940310860E5
:104B30002D48006840F440402B490860294808305F
:104B400000682849083108600846006840F40040C1
:104B500008600846006840F4A05008602348091F18
:104B60000860081F006840F08070091F086000BFDF
:104B70001C48006800F000700028F9D01A4800684E
:104B800040F480301849086000BF1748406800F4BE
:104B900080300028F9D01448006840F400301249F1
:104BA000086000BF1048406800F400300028F9D0C9
:104BB00040F205700E4908600A480830006820F08D
:104BC00003000849083108600846006840F0020008
:104BD000086000BF03480830006800F00C00082897
:104BE000F8D10CBD0038024000700040062D40088E
:104BF000003C024010B5724890ED000A714880ED0B
:104C0000000A714890ED000A6D4880ED000A6F4877
:104C100090ED000A6A48D0ED000A20EE200A6B48A9
:104C2000D0ED010A674890ED001A01EE200A6848AD
:104C3000806AB0F9020000EE900AF8EEE00A9FEDFB
:104C4000651A60EE810A614890ED021A00EE810A51
:104C50005D4880ED000A90ED000A5D4880ED0B0A8A
:104C6000806A00885A49896AB1F90810401AB0F57B
:104C7000805F08DD564890F83E00401E40B254491F
:104C800081F83E0012E05248806A00885049896AE3
:104C9000B1F90810401A10F5805F07DA4C4890F817
:104CA0003E00401C40B24A4981F83E00484890F816
:104CB0003E00122804D1EF20454981F83E0008E06B
:104CC000434890F93E00123018B91120404981F84C
:104CD0003E003F4890F93E00C0EB40303C49896AB5
:104CE0000988084400EE100AB8EEC00ADFED3A0A5F
:104CF00020EE200A364880ED0D0A4FF480613748D7
:104D0000FEF775F8324981F85400084690F83F00E4
:104D100081F84100084690F8400081F84200304890
:104D20000068807C81F83F002D480068C07C81F8D5
:104D30004000084690F83F0060B10846B0F84400D3
:104D4000B0F5C87F0ADA0846B0F84400401CA1F864
:104D5000440003E000201E49A1F844001C4890F8DC
:104D6000400068B11A48B0F84600B0F5C87F0BDAC9
:104D70001748B0F84600401C1549A1F8460003E06A
:104D800000201349A1F846001648007890B1144855
:104D90000068C07A02280DD10D48B0F84800B0F57F
:104DA000FA6F0BDA0A48B0F84800401C0849A1F82D
:104DB000480003E000200649A1F8480010BD0000AB
:104DC00058020020540200205C020020F4C80008B1
:104DD000F00F0220F1A23E3BC2B8B23700140240ED
:104DE0004402002048020020042808D14FF0E021AE
:104DF000096941F004014FF0E022116107E04FF032
:104E0000E021096921F004014FF0E02211617047AF
:104E100010B507F09BFA012801D006F0F3FE10BD93
:104E200010B51548006840F4700013490860134835
:104E3000006840F001001149086000200F49083166
:104E400008600E4800680E4908400C4908600D488B
:104E5000091D0860081F006820F48020091F0860F1
:104E6000002006490C310860FFF734FE4FF0006067
:104E700001498039086010BD88ED00E0003802402B
:104E8000FFFFF6FE1030002410B50121084800F0A5
:104E900013FA60B10121064800F028F905480268BC
:104EA0004068521C40F1000002490A60486010BD91
:104EB000000400408001002030B58BB005460C4650
:104EC00001210220FEF7DEFF01210220FEF7CAFFCA
:104ED000022205212D48FDF767FF01210220FEF780
:104EE000E1FF00210220FEF7DDFF1D208DF81400F8
:104EF00005208DF8150000208DF8160001208DF892
:104F0000170005A8FEF71AFE681E0990601E80B201
:104F1000ADF820000020ADF82200ADF828000122F5
:104F200011461B4800F0D9F908A9194800F08AFA7F
:104F30002020069002208DF81C0003208DF81D0013
:104F400000208DF81E0002208DF81F0006A90F48D2
:104F5000FDF7E2FE6020ADF800000120ADF8020090
:104F60000020ADF80C006946094800F007FA082156
:104F7000074800F055FA0121054800F0ABF801217F
:104F8000034800F0B6F80BB030BD0000000402404A
:104F90000004004070B58AB004460E461546012153
:104FA0000420FEF76FFF01210820FEF75BFF0222BD
:104FB0000C211F48FDF7F8FE4FF4805008900220A6
:104FC0008DF8240003208DF8250000208DF82600A0
:104FD00001208DF8270008A91548FDF79DFEB0B205
:104FE000ADF814000020ADF816000694ADF81C00D2
:104FF00005A9104800F026FA02956020ADF80000DF
:105000000120ADF802000220ADF80C006946094805
:1050100000F06CF90821074800F0A6F901210548C5
:1050200000F058F80121034800F063F80AB070BDA1
:10503000000C02400008004010B50121064800F0B5
:105040003BF938B10121044800F050F80021024832
:1050500000F04FF810BD0000001000407FB505467D
:105060000C4601211020FEF70DFF01211020FEF754
:1050700019FF00211020FEF715FF154800F054F825
:10508000681E0290601E80B2ADF804000020ADF8EA
:105090000600ADF80C0001A90D4800F0D3F901227B
:1050A00011460B4800F019F936208DF80000042055
:1050B0008DF8010000208DF8020001208DF803001A
:1050C0006846FEF73BFD0121014800F012F87FBD64
:1050D0000010004021B1028842F08002028004E00A
:1050E00002884FF67F731A4002807047CA430282DB
:1050F000704721B1028842F00102028004E0028878
:105100004FF6FE731A400280704731B1B0F8442068
:1051100042F40042A0F8442005E0B0F84420C2F375
:105120000E02A0F84420704710B50446554884424A
:1051300008D101210846FEF7D5FE00210120FEF727
:10514000D1FE9DE0B4F1804F08D101210846FEF761
:10515000A9FE00210120FEF7A5FE91E04A48844205
:1051600008D101210220FEF79DFE00210220FEF75A
:1051700099FE85E04548844208D101210420FEF7CC
:1051800091FE00210420FEF78DFE79E04048844224
:1051900008D101210820FEF785FE00210820FEF736
:1051A00081FE6DE03B48844208D101211020FEF7CA
:1051B00079FE00211020FEF775FE61E0364884423A
:1051C00008D101212020FEF76DFE00212020FEF7EE
:1051D00069FE55E03148844208D101210220FEF7E2
:1051E00081FE00210220FEF77DFE49E02C4884422A
:1051F00009D101210804FEF775FE00214FF480302B
:10520000FEF770FE3CE02748844209D101214804A2
:10521000FEF768FE00214FF40030FEF763FE2FE03A
:105220002148844209D101218804FEF75BFE002158
:105230004FF48020FEF756FE22E01C48844208D13D
:1052400001214020FEF72EFE00214020FEF72AFE1D
:1052500016E01748844208D101218020FEF722FE83
:1052600000218020FEF71EFE0AE01248844207D18A
:1052700001218015FEF716FE0021A015FEF712FE93
:1052800010BD000000000140000400400008004084
:10529000000C0040001000400014004000040140D9
:1052A0000040014000440140004801400018004017
:1052B000001C00400020004030B5024600200023C2
:1052C0000024158A05EA0103958905EA010413B152
:1052D0000CB1012000E0002030BD1AB183890B43DE
:1052E000838102E083898B438381704770B50024FA
:1052F00000220023058C4FF6FE7635400584028C93
:105300008388048B4FF68F752C40B51E2C400D887A
:105310002C43751E2A408D892A434D882A43104DFF
:10532000A84202D00F4DA84213D14FF6F7752A407C
:10533000CD892A434FF6FB752A408D882A434FF6C4
:10534000FF652B404FF6FF552B400D8A2B434D8AAE
:105350002B43838004838D684563028470BD000005
:1053600000000140000401400A460021018B4FF675
:10537000F7731940114301837047000070B5002492
:1053800000220023058C4FF6EF7635400584028C11
:105390008388048B48F6FF752C404FF6FF452C4060
:1053A0000D884FF6FF7606EA05252C434FF6DF758C
:1053B0002A408D8906EA05152A434D8806EA051517
:1053C0002A43154DA84202D0144DA8421DD14FF6D4
:1053D0007F752A40CD894FF6FF7606EA05152A43E8
:1053E0004FF6BF752A408D8806EA05152A434FF609
:1053F000FF352B404FF2FF752B400D8A06EA8505DD
:105400002B434D8A06EA85052B43838004838D68F0
:105410008563028470BD000000000140000401406B
:105420000A460021018B4FF2FF7319404FF6FF73BC
:1054300003EA022319430183704741637047816384
:105440007047000000220288184B98420ED0184B7B
:1054500098420BD0B0F1804F08D0164B984205D03F
:10546000154B984202D0154B984204D14FF68F73DA
:105470001A404B881A43124B984207D0114B98425E
:1054800004D04FF6FF431A400B891A4302804B6841
:10549000C3620B880385054B984202D0044B9842A7
:1054A00001D18B7A0386012383827047000001407B
:1054B000000401400004004000080040000C0040CF
:1054C000001000400014004010B540F2255106487D
:1054D00000F0C8F930B1044800F07EFA0349044AEC
:1054E0001278885410BD0000007C00409C120220FD
:1054F0001803002010B540F22551344800F0B2F9ED
:1055000018B1324800F068FA5FE040F224412F48B9
:1055100000F0A8F9002858D02C4800F05DFA2C487B
:10552000FCF777FD40BB00212948FCF795FC284893
:10553000FCF76BFDC0F12400264908802421244893
:10554000FCF7DEFD2248006840F400202049086096
:1055500021491F48FCF74CFC01211D48FCF77CFC4D
:105560001C480088122830D11C491D48FEF7D6FF80
:105570000020FCF72FFE28E000211548FCF76CFC0A
:105580001348FCF742FDC0F1240012490880242191
:105590000F48FCF7B5FD0E48006820F400200C49C8
:1055A00008600D490A48FCF723FC01210848FCF774
:1055B00053FC08480088122807D1084908482430BD
:1055C000FEF7ACFF0020FCF705FE10BD0010014007
:1055D000406402404002002000003010480F0220CA
:1055E0005E0F022010B504F041F940F224411F483B
:1055F00000F038F9002838D000211D48FCF72CFCB9
:105600001A480488001D04881948FCF7FEFC194953
:105610000988891D081A184908800846008830B191
:10562000084600881E2802DA012014490870134831
:10563000007810B1002011490870002404E0002017
:105640000F490855601C84B20B4800888442F6DB81
:105650000C490748FCF7CCFB064801880448FCF7D6
:105660004FFD01210248FCF7F7FB10BD004400404C
:1056700088600240A6000020A4000020A8000020AE
:10568000A4060220400F002010B540F22441224819
:1056900000F0E8F800283DD000212048FCF7DCFBB2
:1056A0001D480488001D04881C48FCF7AEFC1C49FA
:1056B0000988081A1B49088008460088E8B108468E
:1056C00000881E2819DA002405E01748005D1749F4
:1056D0000855601C84B2134800888442F5DB00241E
:1056E00004E0002010490855601C84B20D48008871
:1056F0008442F6DB01200E4908700E490748FCF78A
:1057000077FB074801880548FCF7FAFC01210348AC
:10571000FCF7A2FB10BD0000001401402864024009
:10572000CA000020AA000020C2060220AC0000200F
:10573000CC000020400F001001F40072B2F5007F91
:1057400000D100BFCA430280704721B1828942F470
:105750000052828104E082894DF6FF731A408281F3
:1057600070471AB1838A0B43838202E0838A8B439A
:105770008382704710B504463248844208D1012123
:105780001020FEF7AFFB00211020FEF7ABFB57E027
:105790002D48844209D101214804FEF783FB0021F2
:1057A0004FF40030FEF77EFB4AE02848844209D1DE
:1057B00001218804FEF776FB00214FF48020FEF7DC
:1057C00071FB3DE02248844209D10121C804FEF763
:1057D00069FB00214FF40020FEF764FB30E01D4818
:1057E000844209D101210805FEF75CFB00214FF43A
:1057F0008010FEF757FB23E01748844208D10121AF
:105800002020FEF76FFB00212020FEF76BFB17E046
:105810001248844209D101218807FEF743FB002189
:105820004FF08040FEF73EFB0AE00D48844207D16E
:1058300001214005FEF736FB00216005FEF732FB33
:1058400010BD00000010014000440040004800402E
:10585000004C00400050004000140140007800401F
:10586000007C004070B50246002400230025002083
:1058700040F66A16B14200D100BFC1F3421501F0F3
:105880001F03012606FA03F3012D02D19689334046
:1058900006E0022D02D1168A334001E0968A334099
:1058A0000C12012606FA04F41688344013B10CB128
:1058B000012000E0002070BDF0B503460024002662
:1058C0000025002040F66A17B94200D100BF1846F3
:1058D000C1F3421401F01F06012707FA06F5012C57
:1058E00001D10C3004E0022C01D1103000E0143062
:1058F0001AB107682F43076002E00768AF430760EB
:10590000F0BD00002DE9FF4705460E460024A146E4
:1059100000BFA046B08900B100BF2C8A24F44054D7
:10592000F08804432C82AC8941F20C608443B08837
:1059300031890843718908430443AC81AC8A24F45B
:105940004074B0890443AC826846FEF7DBFA204815
:10595000854202D01F48854202D1DDF80C9001E05B
:10596000DDF80890A88900F4004040B109EBC900B7
:1059700000EB091031684900B0FBF1F707E009EBD3
:10598000C90000EB091031688900B0FBF1F7642011
:10599000B7FBF0F004012009642101FB1078A8890D
:1059A00000F4004040B1322000EBC800B0FBF1F041
:1059B00000F00700044308E0322000EB08106421E7
:1059C000B0FBF1F000F00F0004432C81BDE8FF872D
:1059D000001001400014014001468888C0F308000F
:1059E0007047000010B588B0044601211020FEF772
:1059F00039FA0121C807FEF745FA0822002122489A
:105A0000FDF7D2F9082201211F48FDF7CDF9032047
:105A1000059002208DF818008DF8190000208DF8EF
:105A20001A0001208DF81B0005A91748FDF774F92D
:105A300001940020ADF80800ADF80A00ADF80C00A4
:105A4000ADF810000C20ADF80E0001A90F48FFF7CB
:105A500059FF53208DF81C0001208DF81D000020F7
:105A60008DF81E0001208DF81F0007A8FEF766F8CC
:105A7000012240F225510548FFF71EFF012103488E
:105A8000FFF763FE08B010BD00100240007C00402C
:105A900000BFFEE702F04EFB04462AE094ED000A48
:105AA000DFED140A20EE200A134880ED000A94ED81
:105AB000010ADFED100A20EE200A80ED010A94EDC4
:105AC000020ADFED0C0A20EE200A80ED020A08200F
:105AD00005F06EFA4FF4FA7005F08CFD03F0A8FEA5
